:020000040800F2
:10000000A0210020450100084D0100084F01000813
:1000100051010008530100085501000800000000CC
:100020000000000000000000000000005701000870
:1000300059010008000000005B010008DD570008BE
:100040005F0100085F0100085F0100085F01000810
:100050005F0100085F0100085F0100085F01000800
:100060005F0100085F0100085F0100085F010008F0
:100070005F0100085F0100085F0100085F010008E0
:100080005F0100085F0100085F0100085F010008D0
:100090005F0100085F0100085F0100085F010008C0
:1000A0005F0100085F0100085F0100085F010008B0
:1000B0005F0100085F0100085F0100085F010008A0
:1000C0005F0100085F0100085F0100085F01000890
:1000D0005F0100087D5B0008A95C0008A75D0008BF
:1000E0005F0100085F0100085F0100085F01000870
:1000F0005F0100085F0100085F0100085F01000860
:100100005F0100085F0100085F0100085F0100084F
:100110005F010008A55E00085F0100084355000864
:100120005F0100085F0100085F0100085F0100082F
:10013000DFF80CD008F0D2FA00480047D9280008B0
:10014000A02100200648804706480047FEE7FEE75A
:10015000FEE7FEE7FEE7FEE7FEE7FEE7FEE7FEE777
:1001600047020008310100080CB500200190009002
:100170006C48006840F480306A49086000BF6948F4
:10018000006800F4003000900198401C0190009835
:1001900018B90198B0F5A06FF1D16248006800F479
:1001A000003010B10120009001E000200090009884
:1001B000012843D15C48006840F010005A490860AB
:1001C0000846006820F0030008600846006840F018
:1001D0000200086053484068524948600846406839
:1001E00048600846406840F48060486008464068BF
:1001F00020F47C1048600846406840F4E8104860ED
:100200000846006840F08070086000BF45480068FC
:1002100000F000700028F9D04248406820F0030048
:10022000404948600846406840F00200486000BF0E
:100230003C48406800F00C000828F9D10CBD10B50E
:10024000FFF792FF10BD10B53648006840F001007E
:1002500034490860084640683449084031494860DC
:1002600008460068324908402E4908600846006880
:1002700020F4802008600846406820F4FE004860B2
:100280004FF41F008860FFF7DAFF4FF00060294944
:10029000086010BD10B5002100200022214B5B68D2
:1002A00003F00C0121B1042906D0082928D107E068
:1002B000214B224C236027E01F4B204C236023E07E
:1002C000184B5B6803F47010164B5B6803F48032C4
:1002D000022303EB904022B9194B4343174C236090
:1002E0000DE0104B5B6803F4003323B1144B434320
:1002F000124C236003E0104B4343104C236003E097
:100300000D4B0E4C236000BF00BF064B5B68C3F370
:1003100003130C4CE15C094B1B68CB40074C23607A
:1003200010BD000000100240002002400000FFF855
:10033000FFFFF6FE08ED00E000127A00000000204A
:1003400000093D000400002031490143314A116099
:10035000704770B5002100230F22C47804B32D4CE0
:10036000246804F4E064C4F5E064210AC1F10403E4
:10037000CA40447804FA03F1847814402143090107
:10038000254C0678A155047804F01F050124AC40E3
:1003900005786D11AD0005F1E025C5F8004109E0D3
:1003A000047804F01F050124AC401C4D067876113A
:1003B00045F8264070BD1A4A0A400243154B1B1FE0
:1003C0001A60704739B1134A121D12680243114B6B
:1003D0001B1D1A6006E00F4A121D126882430D4B66
:1003E0001B1D1A607047042808D14FF0E0210969ED
:1003F00041F004014FF0E022116107E04FF0E021ED
:10040000096921F004014FF0E022116170470000FA
:100410000000FA050CED00E000E400E080E100E0FF
:1004200080FFFF1F10B50446FA48844208D101211D
:10043000401500F07FFE0021601500F07BFE17E004
:10044000F548844208D10121001500F073FE002117
:10045000201500F06FFE0BE0F048844208D1012126
:10046000C80300F067FE00214FF4004000F062FE78
:1004700010BD30B50246002000235068E84C2040F3
:100480000D790C6844EA0524204350609068E54CDF
:100490002040D1E902542C434D7944EA45042043DD
:1004A0009060D06A20F470000C7C641EE4B2234398
:1004B00040EA0350D06230BD0021016001714171FA
:1004C0008160C16001210174704721B1826842F0EE
:1004D0000102826003E0826822F0010282607047BC
:1004E00021B1826842F48072826003E0826822F463
:1004F00080728260704710B50023CBB21AB1446895
:100500001C43446002E044689C43446010BD816821
:1005100041F0080181607047014600208A6802F0BE
:1005200008020AB1012000E000207047816841F014
:10053000040181607047014600208A6802F00402CD
:100540000AB1012000E00020704721B1826842F426
:10055000A002826003E0826822F4A00282607047F9
:10056000014600208A6802F480020AB1012000E0FE
:100570000020704710B50A4600210023416821F48D
:100580006041531E41EA4331416010BD21B14268D0
:1005900042F40062426003E0426822F4006242607A
:1005A0007047F0B504460D4600200021092D11DDED
:1005B000E068A5F10A0606EB4607072606FA07F1EA
:1005C0008843A5F10A0606EB460603FA06F108433E
:1005D000E0600CE0206905EB4507072606FA07F105
:1005E000884305EB450603FA06F108432061072A14
:1005F0000FDA606B561E06EB86071F2606FA07F118
:100600008843561E06EB860605FA06F1084360632A
:1006100022E00D2A0FDA206BD61F06EB86071F2675
:1006200006FA07F18843D61F06EB860605FA06F19F
:100630000843206310E0E06AA2F10D0606EB86078E
:100640001F2606FA07F18843A2F10D0606EB86067F
:1006500005FA06F10843E062F0BD21B1826842F478
:100660008012826003E0826822F480128260704708
:100670000146C86C80B2704766484C3000687047CD
:1006800021B1426842F48062426003E0426822F491
:1006900080624260704721B1426842F480524260F9
:1006A00003E0426822F48052426070470A4600210B
:1006B000816821F4E04111438160704721B1826873
:1006C00042F40042826003E0826822F400428260C9
:1006D000704721B1826842F40212826003E08268AE
:1006E00022F4021282607047014600208A6802F4F8
:1006F00000120AB1012000E000207047F0B5044666
:100700001546002000220026092911DDE068A1F12C
:100710000A0707EB470C072707FA0CF29043A1F1F1
:100720000A0707EB470703FA07F21043E0600CE003
:10073000206901EB410C072707FA0CF2904301EB0B
:10074000410703FA07F210432061A06BC0F3015682
:10075000EF1C06F1010CA7EB0C0707EB870C1F271A
:1007600007FA0CF29043EF1C06F1010CA7EB0C0703
:1007700007EB870701FA07F21043A063F0BD10B53D
:100780000A4600210023816B21F44011531E41EAE7
:100790000351816310BD08B5002300930090009BB6
:1007A0000B440093009B1A6008BD08B50246002068
:1007B0000090009201F12800009B184400900098DE
:1007C000006880B208BD0A4600214168164B1940F6
:1007D0001143416070474162826270470A460021BE
:1007E000416821F01F0111434160704740B1094940
:1007F0000831096841F40001064A0832116007E037
:1008000004490831096821F40001024A08321160E4
:10081000704700000024014000280140003C0140D6
:10082000FFFEF0FFFDF7F1FFFFFD3FFF0246002056
:1008300013680B400BB1012000E000207047CA4351
:100840000260704770B502460020002300240B129E
:100850005568CEB205EA060415681D4015B10CB105
:10086000012000E0002070BD00220A12D343036083
:100870007047000001684FF6FE72114001600021D0
:10088000016041608160C1608D49884208D18C4916
:100890000839496841F00F01894A083A51608AE0F5
:1008A00087491431884208D185490839496841F09F
:1008B000F001834A083A51607DE08149283188423D
:1008C00008D17F490839496841F470617C4A083A87
:1008D000516070E07A493C31884208D17849083942
:1008E000496841F47041764A083A516063E07449BE
:1008F0005031884208D172490839496841F4702161
:100900006F4A083A516056E06D496431884208D117
:100910006B490839496841F47001694A083A5160E5
:1009200049E067497831884208D165490839496802
:1009300041F07061624A083A51603CE06149884286
:1009400006D1011F096841F00F01021F116032E05A
:100950005C491431884208D15A49091F096841F09D
:10096000F001584A121F116025E05649283188428B
:1009700008D15449091F096841F47061514A121F96
:10098000116018E04F493C31884208D14D49091F98
:10099000096841F470414B4A121F11600BE049494C
:1009A0005031884207D14749091F096841F4702135
:1009B000444A121F1160704710B50022026847F6C2
:1009C000F0739A430C6A8B6823430C6923434C6988
:1009D00023438C692343CC6923434C6A23438C6AA9
:1009E00023431A430260CB6843600B6883604B6803
:1009F000C36010BD0021016041608160C160016180
:100A000041618161C161016241628162704721B1CE
:100A1000026842F00102026004E002684FF6FE73D1
:100A20001A40026070471AB103680B43036002E08A
:100A300003688B4303607047416070470146486814
:100A400080B2704701460020002201F080531BB1A4
:100A50001C4B083B1A6802E0194B083B1A6802EA73
:100A600001030BB1012000E00020704700F080512D
:100A700019B11449091F086002E01149083948609A
:100A8000704701460020002201F080531BB10D4B3E
:100A9000083B1A6802E00A4B083B1A6802EA0103A5
:100AA0000BB1012000E00020704700F0805119B127
:100AB0000449091F086002E001490839486070478D
:100AC000080002400804024010B50446CC488442A5
:100AD00008D10121042000F02DFB0021042000F0AA
:100AE00029FB46E0C748844208D10121082000F0D4
:100AF00021FB0021082000F01DFB3AE0C24884429F
:100B000008D10121102000F015FB0021102000F079
:100B100011FB2EE0BD48844208D10121202000F0C5
:100B200009FB0021202000F005FB22E0B8488442A8
:100B300008D10121402000F0FDFA0021402000F002
:100B4000F9FA16E0B348844208D10121802000F070
:100B5000F1FA0021802000F0EDFA0AE0AE4884426C
:100B600007D10121801500F0E5FA0021A01500F061
:100B7000E1FA10BD10B50121084600F0DBFA0021B2
:100B8000012000F0D7FA10BD2DE9F0410246002502
:100B90000026002000230024002791F803C00CF059
:100BA0000F0591F803C00CF0100CBCF1000F03D03E
:100BB00091F802C04CEA050591F800C0BCF1000FA5
:100BC00031D0146800202BE04FF0010C0CFA00F338
:100BD000B1F800C00CEA03069E4220D183004FF01A
:100BE0000F0C0CFA03F7BC4305FA03FC4CEA0404AF
:100BF00091F803C0BCF1280F06D14FF0010C0CFA9C
:100C000000FCC2F814C00AE091F803C0BCF1480F20
:100C100005D14FF0010C0CFA00FCC2F810C0401CCA
:100C20000828D1D31460B1F800C0BCF1FF0F34DD47
:100C3000546800202EE000F1080C4FF0010808FA7B
:100C40000CF3B1F800C00CEA03069E4221D18300E8
:100C50004FF00F0C0CFA03F7BC4305FA03FC4CEA07
:100C6000040491F803C0BCF1280F05D100F1080C71
:100C700008FA0CF8C2F8148091F803C0BCF1480FD0
:100C800007D100F1080C4FF0010808FA0CF8C2F87F
:100C90001080401C0828CED35460BDE8F0814FF688
:100CA000FF710180022181700421C17070470246EA
:100CB000002093680B400BB1012000E0002070473A
:100CC0000146886880B2704702460020D3680B4016
:100CD0000BB1012000E0002070470146C86880B2D7
:100CE000704701617047416170470AB1016100E0DE
:100CF00041617047C16070474FF480320A4382619E
:100D00008161826182698269704702460020434B9B
:100D100018684FF68073184040EA021008433F4BB2
:100D2000186070473E49C8617047F0B50A46002315
:100D300000240021002500F00046B6F1004F02D14A
:100D4000364EF16901E0354E7168C0F3034583B258
:100D500000F44016B6F5401F08D121F070612F4E07
:100D6000766826F070662D4F7E6012E000F48016E3
:100D7000B6F5801F06D1032606FA05F4A14341F01B
:100D8000706106E0460D360103FA06F6B14341F004
:100D9000706122B1460D360103FA06F6314300F0C8
:100DA0000046B6F1004F02D11C4EF16101E01B4E2E
:100DB0007160F0BD30B500228B071C0F0F2303FAC2
:100DC00004F2164B08338C1053F824309343134C21
:100DD00008348D1044F8253023468C1053F8243005
:100DE0008C07240F00FA04F423430C4C08348D10B4
:100DF00044F8253030BD0A49DC31086070470000F6
:100E000000080140000C01400010014000140140A6
:100E100000180140001C014000200140000001407A
:100E200000002042DF48006840F00100DD49086012
:100E300008464068DC490840DA49486008460068CE
:100E4000DA490840D74908600846006820F4802045
:100E500008600846406820F4FE0048604FF41F0018
:100E600088607047CF49096821F48031CD4A11600C
:100E70001146096821F480211160B0F5803F03D04C
:100E8000B0F5802F0ED106E0C649096841F48031E3
:100E9000C44A116007E0C349096841F4A021C14A6E
:100EA000116000E000BF00BF704710B5014600228E
:100EB000002300204A11012A02D1BA4C236806E01F
:100EC000022A02D1B74C236A01E0B64C636A01F0F2
:100ED0001F02012494401C400CB1012000E00020BE
:100EE00010BD38B5002000900024002500BF31203F
:100EF000FFF7DBFF05460098401C00900098B0F516
:100F0000A06F01D0002DF2D03120FFF7CEFF08B145
:100F1000012400E00024204638BD01460020A14AFB
:100F2000106820F0F80040EAC10010607047A04946
:100F300008607047024600209A4B586820F47C10E5
:100F400042EA01031843974B586070479849086676
:100F5000704701460020934A506820F00300084380
:100F6000506070478F48406800F00C0070470146A1
:100F700000208C4A506820F0F00008435060704711
:100F800001460020874A506820F4E0600843506022
:100F9000704701460020834A506820F4605040EAC0
:100FA000C1005060704729B17E4A527A02437D4B9E
:100FB0005A7204E07B4A527A82437A4B5A727047E3
:100FC0007B49D8310860704701460020754A506857
:100FD00020F440400843506070470021714A20329D
:100FE0001170704A82F82010012802D004280AD11A
:100FF00004E001216B4A2032117005E00521694AA5
:101000002032117000E000BF00BF704769490860DE
:1010100070476449096A0143624A11627047654931
:1010200044390860704730B50021002200240023B5
:101030005C4D6D6805F00C0121B1042905D008292B
:1010400023D105E05C4D056022E05B4D05601FE0AB
:10105000544D6D6805F47012524D6D6805F480347E
:10106000022505EB92421CB9544D554305600BE037
:101070004C4D6D6805F400351DB1504D554305606C
:1010800002E04D4D5543056002E04B4D056000BF49
:1010900000BF444D6D6805F0F0010909484D6B5CD7
:1010A0000568DD4045603F4D6D6805F4E061090A63
:1010B000434D6B5C4568DD4085603A4D6D6805F4D5
:1010C0006051C90A3E4D6B5C4568DD40C560354DD9
:1010D0006D6805F44041890B3A4D6B5CC568B5FB02
:1010E000F3F5056130BD29B12E4A526902432D4BFB
:1010F0005A6104E02B4A526982432A4B5A61704775
:1011000029B1284A92690243264B9A6104E0254A94
:1011100092698243234B9A61704729B1214AD2696F
:101120000243204BDA6104E01E4AD26982431D4B20
:10113000DA61704729B11B4AD2680243194BDA6061
:1011400004E0184AD2688243164BDA60704729B12E
:10115000144A12690243134B1A6104E0114A1269DE
:101160008243104B1A61704712494039086070473A
:101170000F49C86470470B49C87170470948406AF5
:1011800040F0807007494862704701460020054AD8
:1011900092680A400AB1012000E00020704701492E
:1011A00088727047001002400000FFF8FFFFF6FE53
:1011B000000042428004424200127A0000093D00D1
:1011C000140000202400002010B50446BE488442CC
:1011D00008D101218014FFF7ADFF0021A014FFF713
:1011E000A9FF16E0B948844208D101210014FFF795
:1011F000AEFF00212014FFF7AAFF0AE0B4488442A2
:1012000007D10121C013FFF7A2FF0021E013FFF770
:101210009EFF10BD10B50022028802F441520B88D7
:101220004C8823438C882343CC8823430C89234355
:101230004C8923438C892343CC8923431A4302805E
:10124000838B4FF2FF74234083830B8A038210BD8C
:101250002DE9F04F85B005460C464FF000090227F6
:101260004FF000084FF0010B0026B246A88B4FF25A
:1012700040010840A88302202884B5F81C90A0688B
:10128000022801D100BF38E0A08810B94FF0010B4F
:1012900001E04FF0020B8D48854200D100E000BF15
:1012A0006846FFF7C0FEDDF800A0E088B0F5007FDB
:1012B0000AD14FEA1A2000EB80004000A168B0FB81
:1012C000F1F0401D86B20BE04FEA4B10BAFBF0F094
:1012D00000EB80004000A168B0FBF1F0401D86B239
:1012E0000A20B6FBF0F606F00108A6EB0800C0F3F2
:1012F0004F074FF6FF7000EA0828022F01DBFF2F8F
:1013000002DD02274FF00008E08840EA0800384379
:101310002884A088A189084361880843218808435C
:1013200040F4006040EA0909A5F81C9005B0BDE84A
:10133000F08F0021018041808180C1800181418145
:101340008181C18107210182704700210180418094
:101350008180C1800221816000218181704721B19B
:10136000028842F04002028004E002884FF6BF7318
:101370001A400280704721B1828B42F480628283DE
:1013800004E0828B4FF6FF331A408283704730B5FA
:10139000002400230C110125A540ABB21AB18588A9
:1013A0001D43858002E085889D43858030BD1AB14C
:1013B00083880B43838002E083888B43838070475C
:1013C000818170470146888970474FF6FF629142DC
:1013D00004D0028842F48072028004E002884FF652
:1013E000FF631A400280704721B1828842F00402F4
:1013F000828004E082884FF6FB731A408280704737
:1014000002884FF2FF731A40028002880A4302806A
:101410007047018841F480510180704721B10288F2
:1014200042F40052028004E002884DF6FF731A4035
:101430000280704702460020012901D0108B00E095
:10144000908A70470146088A7047B1F5804F04D1F1
:10145000028842F48042028004E002884BF6FF7367
:101460001A40028070470246002013890B400BB1DE
:10147000012000E000207047CA4302817047F0B5A8
:101480000246002000240023002501F00F0701265A
:10149000BE40B4B20B1101269E40B3B2968806EA54
:1014A00003051689264016B10DB1012000E0002089
:1014B000F0BD10B5002201F00F040123A3409AB241
:1014C000D343038110BD00000030014000380040CC
:1014D000003C004010B50446FE48844208D101217A
:1014E000C014FFF727FE0021E014FFF723FEC4E03D
:1014F000B4F1804F08D101210846FFF728FE0021F2
:101500000120FFF724FEB8E0F348844208D101210E
:101510000220FFF71CFE00210220FFF718FEACE0BE
:10152000EE48844208D101210420FFF710FE00217B
:101530000420FFF70CFEA0E0E948844208D1012115
:101540000820FFF704FE00210820FFF700FE94E0CA
:10155000E448844208D101211020FFF7F8FD002162
:101560001020FFF7F4FD88E0DF48844208D1012114
:101570002020FFF7ECFD00212020FFF7E8FD7CE0B4
:10158000DA48844208D101214014FFF7D3FD00213D
:101590006014FFF7CFFD70E0D548844209D10121E6
:1015A000C804FFF7C7FD00214FF40020FFF7C2FD7C
:1015B00063E0D048844209D101210805FFF7BAFD54
:1015C00000214FF48010FFF7B5FD56E0CA48844271
:1015D00009D101214805FFF7ADFD00214FF40010AE
:1015E000FFF7A8FD49E0C548844208D10121402009
:1015F000FFF7ADFD00214020FFF7A9FD3DE0C04809
:10160000844208D101218020FFF7A1FD0021802024
:10161000FFF79DFD31E0BB48844208D101218015D0
:10162000FFF795FD0021A015FFF791FD25E0B648D5
:10163000844209D101210804FFF77CFD00214FF409
:101640008030FFF777FD18E0B048844209D10121CE
:101650004804FFF76FFD00214FF40030FFF76AFDEB
:101660000BE0AB48844208D101218804FFF762FDFA
:1016700000214FF48020FFF75DFD10BD002202889D
:10168000944B98420ED0994B98420BD0B0F1804FBA
:1016900008D0914B984205D0904B984202D0904B85
:1016A000984204D14FF68F731A404B881A438D4BE2
:1016B000984207D08C4B984204D04FF6FF431A4013
:1016C000CB881A4302808B8883850B880385814BE6
:1016D00098420BD0854B984208D08B4B984205D04E
:1016E0008A4B984202D08A4B984201D10B7A0386EA
:1016F00001238382704770B5002400220023058CEB
:101700004FF6FE7635400584028C8388048B4FF6B5
:101710008F752C40B51E2C400D882C43751E2A4019
:101720000D892A434D882A436A4DA8420BD06F4D3C
:10173000A84208D0744DA84205D0744DA84202D0EA
:10174000734DA84213D14FF6F7752A404D892A43AD
:101750004FF6FB752A408D882A434FF6FF652B40D4
:101760004FF6FF552B408D892B43CD892B4383802A
:101770000483CD888586028470BD70B50024002264
:101780000023058C4FF6EF7635400584028C838864
:10179000048B48F6FF752C404FF6FF452C400D8812
:1017A0004FF6FF7606EA05252C434FF6DF752A40F3
:1017B0000D8906EA05152A434D8806EA05152A43D0
:1017C000444DA84202D0494DA8421DD14FF67F7525
:1017D0002A404D894FF6FF7606EA05152A434FF653
:1017E000BF752A408D8806EA05152A434FF6FF3556
:1017F0002B404FF2FF752B408D8906EA85052B4360
:10180000CD8906EA85052B4383800483CD8805872F
:10181000028470BD70B5002400220023058C4FF6B1
:10182000FF6635400584028C8388848B4FF68F7564
:101830002C404FF6FC752C400D882C434FF6FF557D
:101840002A400D894FF6FF7606EA05252A434D8882
:1018500006EA05252A431F4DA84202D0234DA8427F
:101860001DD14FF2FF752A404D894FF6FF7606EAEB
:1018700005252A434FF6FF352A408D8806EA0525BF
:101880002A434EF6FF752B404DF6FF752B408D8990
:1018900006EA05152B43CD8906EA05152B438380FF
:1018A0008483CD888587028470BD70B500220023B3
:1018B0000024058C4EF6FF7635400584038C848821
:1018C000828B48F6FF752A404FF6FF452A400D8867
:1018D00020E00000002C014000040040000800400F
:1018E000000C004000100040001400400034014093
:1018F000004C0140005001400054014000180040DD
:10190000001C004000200040004001400044014015
:10191000004801404FF6FF7606EA05252A434DF6BA
:10192000FF752B400D8906EA05352B434D8806EAE5
:1019300005352B43FA4DA84202D0FA4DA84208D1F2
:101940004BF6FF752C408D894FF6FF7606EA85151C
:101950002C4384808283CD88A0F84050038470BDDE
:10196000828B4FF2FF331A408283828B4FF6FF73D4
:1019700003EA01231A4382837047F0B50C461546EB
:10198000002200210026078C4EF6FF7C07EA0C0798
:101990000784828B018C4FF6FF7707EA043640F606
:1019A000FF473A404FF6FF7707EA05273A434FF6DD
:1019B000FF7707EA03373A43D94FB8420ED0D94FE1
:1019C000B8420BD0B0F1804F08D0D74FB84205D005
:1019D000D64FB84202D0D64FB84206D14DF6FF7767
:1019E000394046F48057394305E047F6FF57394000
:1019F00044F48057394382830184F0BD828B4FF6D3
:101A0000F3731A408283828B0A4382837047F0B556
:101A10000C461546002200210026078C4FF6FF6C6D
:101A200007EA0C070784828B018C4FF6FF7707EAE1
:101A300004264FF60C773A404FF6FF7707EA031774
:101A40002F433A43B64FB8420ED0B64FB8420BD0F0
:101A5000B0F1804F08D0B44FB84205D0B34FB84270
:101A600002D0B34FB84206D14FF6FF57394046F483
:101A70008077394305E04FF2FF57394044F48077CF
:101A8000394382830184F0BD028B4FF2FF331A4049
:101A90000283028B4FF6FF7303EA01231A4302838A
:101AA0007047F0B50C461546002200210026078C31
:101AB0004FF6EF7C07EA0C070784028B018C4FF688
:101AC000FF7707EA041640F6FF473A404FF6FF77E4
:101AD00007EA03373A434FF6FF7707EA05273A4309
:101AE0008F4FB8420ED08F4FB8420BD0B0F1804F1D
:101AF00008D08D4FB84205D08C4FB84202D08C4FE1
:101B0000B84206D14FF6DF77394046F01007394327
:101B100005E04FF65F77394044F010073943028300
:101B20000184F0BD028B4FF6F3731A400283028BDF
:101B30000A4302837047F0B50C4615460022002187
:101B4000068C4FF6FE773E400684028B018C4FF6E2
:101B50000C7632407E1C06EA03162E433243704E4A
:101B6000B0420ED06F4EB0420BD0B0F1804F08D0D3
:101B70006D4EB04205D06D4EB04202D06C4EB042B8
:101B800006D14FF6FD76314044F00106314305E0C1
:101B90004FF6F576314044F001063143028301846B
:101BA000F0BD70B505460C465D4885420ED05D48D7
:101BB00085420BD0B5F1804F08D05B48854205D0F7
:101BC0005A48854202D05A48854200D100E000BF01
:101BD000208850B92389A28861882846FFF7ABFF87
:101BE000E1882846FFF79EFF25E0208804280AD1D7
:101BF0002389A28861882846FFF753FFE188284699
:101C0000FFF742FF17E0208808280AD12389A2881D
:101C100061882846FFF7FBFEE1882846FFF7EEFEC5
:101C200009E02389A28861882846FFF7A6FEE1889B
:101C30002846FFF795FE70BD2DE9F04105460C469C
:101C400000260127608808B9022600E00026A08847
:101C5000012801D1022700E001272088A0B92389AB
:101C6000A28861882846FFF766FFE1882846FFF7CB
:101C700059FF23893A4631462846FFF712FFE1888B
:101C80002846FFF701FF13E02389A28861882846D0
:101C9000FFF707FFE1882846FFF7F6FE23893A465B
:101CA00031462846FFF747FFE1882846FFF73AFF0D
:101CB000BDE8F0810A884B881A438B881A43CB8889
:101CC0001A430B891A434B891A438B891A43A0F88C
:101CD000442070474FF6FF71818000210180C18050
:101CE0004180017270470021018041808180C18064
:101CF000018141818181C181704700210180418042
:101D0000012181800021C180018170470021018073
:101D100041808180C18001814181818170470000C3
:101D2000002C014000340140000400400008004045
:101D3000000C004021B1028842F00102028004E060
:101D400002884FF6FE731A400280704731B1B0F836
:101D5000442042F40042A0F8442005E0B0F84420BA
:101D6000C2F30E02A0F8442070471AB183890B43D6
:101D7000838102E083898B4383817047818270472E
:101D800041EA0203A0F8483070471AB183890B4337
:101D9000838102E083898B438381704701894FF6F9
:101DA000F8721140018170470A46002101894FF6FF
:101DB0008F73194011430181704730B504460D46B9
:101DC00029462046FFF7F0FF208940F007002081D8
:101DD00030BD2DE9F04104460D4616461F46602DE4
:101DE00006D13B46012231462046FFF75AFE05E068
:101DF0003B46012231462046FFF79DFE29462046FC
:101E0000FFF7D2FF208940F007002081BDE8F08174
:101E100030B50C4600210189C9B24FF6FF7505EABD
:101E20000325154325432943018130BD2DE9F041A8
:101E300005460E4617469846002443463A46314624
:101E40002846FFF7E5FF2C894FF6F870044044F070
:101E500007044FF68F70044044F070042C81BDE8F5
:101E6000F081F0B504460D4616461F463B46324605
:101E700029462046FFF7CCFF208940F4804020818E
:101E8000F0BD0185828270470A46002101884FF625
:101E90008F731940114301807047F0B50C46154609
:101EA0001E460021002200230189028B038C4FF67D
:101EB000F877394021434FF6FC473A4040F201178A
:101EC0003A434FF6DD773B404FF6FF7707EA0617B8
:101ED0002F433B43018102830384F0BD0A46002166
:101EE000018B4FF68F7319401143018370470A46E7
:101EF0000021018B48F6FF7319404FF6FF7303EA88
:101F000002231943018370470A460021818B4FF653
:101F10008F7319401143818370470A460021818BDA
:101F200048F6FF7319404FF6FF7303EA0223194383
:101F30008183704721B1028842F08002028004E070
:101F400002884FF67F731A400280704721B1828861
:101F500042F00402828004E082884FF6FB731A404C
:101F60008280704721B1828842F00802828004E0BA
:101F700082884FF6F7731A408280704721B18288B9
:101F800042F00102828004E082884FF6FE731A401C
:101F9000828070470A460021018B4FF6F773194083
:101FA0001143018370470A460021018B4FF2FF73F2
:101FB00019404FF6FF7303EA022319430183704768
:101FC0000A460021818B4FF6F77319401143818334
:101FD00070470A460021818B4FF2FF7319404FF67C
:101FE000FF7303EA02231943818370470A460021E5
:101FF000018B4FF6FB7319401143018370470A466A
:102000000021018B4FF6FF3319404FF6FF7303EAAF
:1020100002231943018370470A460021818B4FF642
:10202000FB7319401143818370470A460021818B5D
:102030004FF6FF3319404FF6FF7303EA02231943AB
:10204000818370470A460021018B4FF67F73194048
:102050001143018370470A460021018BC1F30E0131
:102060004FF6FF7303EA02231943018370470A46C0
:102070000021818B4FF67F73194011438183704794
:102080000A460021818BC1F30E014FF6FF7303EA6C
:1020900002231943818370470A460021018C4FF6C1
:1020A000FD7319401143018470470A460021018CD9
:1020B0004FF6F77319401143018470470A46002117
:1020C000018C4FF6DF7319404FF6FF7303EA0213DA
:1020D0001943018470470A460021018C4FF67F7333
:1020E00019404FF6FF7303EA021319430184704746
:1020F0000A460021018C4FF6FF5319404FF6FF733B
:1021000003EA02231943018470470A460021018C27
:102110004FF2FF7319404FF6FF7303EA022319438E
:10212000018470470A460021018C4DF6FF73194067
:102130004FF6FF7303EA023319430184704730B549
:10214000002301248C40A3B2048C9C430484048C9F
:1021500002FA01F5ADB22C43048430BD30B5002342
:1021600004248C40A3B2048C9C430484048C02FAA3
:1021700001F5ADB22C43048430BD70B50346002098
:1021800000241846183001258D40ACB21D8CA543A3
:102190001D8409B1082909D100EB6100056825F00B
:1021A000700505600568154305600EE00D1FC5F359
:1021B0004E052844056825F4E045056005684FF69E
:1021C000FF7606EA02263543056070BD21B102881C
:1021D00042F00202028004E002884FF6FD731A40CA
:1021E0000280704721B1028842F00402028004E0BC
:1021F00002884FF6FB731A400280704721B1828833
:1022000042F08002828004E082884FF67F731A4099
:102210008280704702884FF6F7731A400280028866
:102220000A430280704782884FF68F731A4082807B
:1022300082880A438280704702894FF6F8731A40F9
:10224000028102890A430281704702894FF67F7337
:102250001A40028102890A430281704781847047D3
:1022600081857047818670470187704781877047F5
:10227000A0F84010704702884FF6FF431A400280D2
:1022800002880A43028070470146888E70470146E3
:10229000088F70470146888F70470146B1F84000AB
:1022A00070470146888C70470146088D704702468A
:1022B0000020138A0B400BB1012000E00020704782
:1022C000CA430282704730B5024600200023002432
:1022D000158A05EA0103958905EA010413B10CB1D9
:1022E000012000E0002030BDCA4302827047000098
:1022F00010B50446FB48844209D101218803FEF74A
:1023000019FF00214FF48040FEF714FF32E0F64839
:10231000844209D101214804FEF719FF00214FF43E
:102320000030FEF714FF25E0F048844209D1012176
:102330008804FEF70CFF00214FF48020FEF707FF12
:1023400018E0EB48844209D10121C804FEF7FFFEE2
:1023500000214FF40020FEF7FAFE0BE0E54884422E
:1023600008D101210805FEF7F2FE00214FF480108C
:10237000FEF7EDFE10BD2DE9F04786B005460E468E
:102380000024A24600BFA1460027B08900B100BFCB
:102390002F462C8A4CF6FF700440F08804432C82B0
:1023A000AC894EF6F3100440B08831890843718936
:1023B00008430443AC81AC8A4FF6FF400440B08927
:1023C0000443AC8201A8FEF72EFEC648874202D124
:1023D000DDF810A001E0DDF80CA0A88900F40040B1
:1023E00040B10AEBCA0000EB0A1031684900B0FBAB
:1023F000F1F807E00AEBCA0000EB0A103168890027
:10240000B0FBF1F86420B8FBF0F00401200964216E
:1024100001FB1089A88900F4004040B1322000EB94
:10242000C900B0FBF1F000F00700044308E03220DF
:1024300000EB09106421B0FBF1F000F00F00044341
:102440002C8106B0BDE8F0874FF4165101600021E1
:102450008180C18001810C214181002181817047EF
:1024600010B502460020108A4FF2FF0318400B8877
:102470004C8823438C882343CC8823431843108201
:1024800010BD0021018041808180C180704721B151
:10249000828942F40052828104E082894DF6FF7302
:1024A0001A4082817047F0B50346002400260025BB
:1024B000002040F66A17B94200D100BF1846C1F3A8
:1024C000421401F01F06012707FA06F5012C01D17D
:1024D0000C3004E0022C01D1103000E014301AB1AD
:1024E00007682F43076002E00768AF430760F0BD4D
:1024F0001AB1838A0B43838202E0838A8B438382EF
:102500007047028A4FF6F0731A400282028A0A4329
:102510000282704782894FF2FF731A40828182895A
:102520000A438281704721B1828942F0020282818E
:1025300004E082894FF6FD731A4082817047028A57
:102540004FF6DF731A400282028A0A430282704702
:1025500021B1028A42F48042028204E0028A4BF6F0
:10256000FF731A4002827047C1F3080282807047ED
:1025700001468888C0F308007047818941F0010155
:1025800081817047028BD2B20283028B42EA012220
:1025900002837047028B02F47F420283028B0A435C
:1025A0000283704721B1828A42F02002828204E0D5
:1025B000828A4FF6DF731A408282704721B1828A85
:1025C00042F01002828204E0828A4FF6EF731A40D2
:1025D0008282704721B1828A42F00802828204E03E
:1025E000828A4FF6F7731A408282704721B182893E
:1025F00042F40042828103E08289C2F30E028281AA
:10260000704721B1828A42F40062828204E0828AA9
:102610004FF2FF731A4082827047828A4FF6FB7333
:102620001A408282828A0A438282704721B1828A5A
:1026300042F00202828204E0828A4FF6FD731A4061
:102640008282704702460020B1F5007F00D100BFB2
:1026500013880B400BB1012000E00020704701F40B
:102660000072B2F5007F00D100BFCA4302807047FC
:1026700070B50246002400230025002040F66A16AB
:10268000B14200D100BFC1F3421501F01F03012682
:1026900006FA03F3012D02D19689334006E0022D9C
:1026A00002D1168A334001E0968A33400C1201268B
:1026B00006FA04F41688344013B10CB1012000E08E
:1026C000002070BD10B50022002340F66A14A1421C
:1026D00000D100BF0A1201249440A3B2DC4304805D
:1026E00010BD000000380140004400400048004098
:1026F000004C00400050004010B501210D20FEF7B5
:10270000FFFC0121C348FEF710FB10BD10B503F01C
:1027100079F8C1490968401AB0F57A7F00D210BD36
:1027200003F070F8BC4908601021BC48FEF7CCFAF1
:10273000C0F10100C4B222461021B848FEF7D5FA14
:1027400000BFECE710B50024AC22B549B54803F052
:10275000E6FFB4480068142802D01420B14908608C
:10276000B048D0F8A80025280ED0002406E00021AB
:10277000AC48883040F82410601CC4B2082CF6DB4A
:102780002521A848C0F8A810002408E0A5488830F2
:1027900050F82410204602F0E5FF601CC4B2082C5B
:1027A000F4DBA04890F88400252807D19D480079E3
:1027B000242803D19B48001D01F098FB10BD2DE992
:1027C000F04786B04FF0000A03F01CF896490968FC
:1027D000401A40F2DC51884202D206B0BDE8F087D0
:1027E00003F010F8904908609048008805F0B9FCA3
:1027F00006468F4905F0B4FA05468E4905F0B0FA51
:1028000004468D4905F0DEFA82468C49504605F0B3
:1028100081FD08D28A49504605F072FD03D20A2193
:10282000032004F024FD04F0CBFA86480022864BF6
:10283000D0E90271384605F0AAFB054605F0E1FC37
:1028400004468249D1E9027100227F4B384605F0E7
:102850009EFB054605F0D5FC814623464A467CA1F1
:1028600001A806F039F901AA0021084604F01DFB71
:102870007B480022744BD0E90271384605F087FB93
:10288000054605F0BEFC0446764800226E4BD0E9B2
:102890000271384605F07BFB054605F0B2FC814627
:1028A00023464A4670A101A806F016F901AA0121A3
:1028B000002004F0FAFA504605F0C2FC0446224615
:1028C0000B466DA101A806F007F901AA032100201B
:1028D00004F0EBFA00BF80E708B502F055FFFFF700
:1028E0000BFF02F0EFF903F009FE04F029FC04F0FD
:1028F000ABFC04F0D5FC02F06BFE04F0F7F800F03E
:10290000EDF8FFF71FFF00F025FC00F0BBF900F029
:10291000E7FC5D485D4B5E4A5E4900905E4801F011
:10292000ABFE04F052FA04F0D5FB1421032004F0AE
:102930009EFC142159A006F0BFF803F05FFE044688
:1029400021465BA006F0B8F83848008805F009FC7D
:102950008146374905F004FA0646364905F000FA83
:102960000546354905F02EFA044605F069FC074690
:102970003A460B4652A006F09FF80022FF2110466F
:1029800004F096FD0022FF21104604F009FE4FF4EA
:102990007A7000F0DEFF00221146FF2004F000FEF6
:1029A00000221146FF2004F083FD4FF47A7000F0FE
:1029B000D0FFFF220021084604F0F2FDFF22002193
:1029C000084604F075FD23E000F089FB00F098F85C
:1029D000FFF79CFE01F061FD00F054FF3D480068E8
:1029E00008B9FFF7ECFE04213B48FEF760F9012827
:1029F0000ED10A2104F03BFC10210848FEF764F9CF
:102A0000C0F10100C4B2224610210448FEF76DF95E
:102A1000DAE700000002300028000020001001402A
:102A200000F07F00980300202C0000208C01002083
:102A3000000030413333534000F07F450000A04098
:102A400000002041B804002000408F40A004002076
:102A5000413A25642C20423A2564206D6D2F730085
:102A6000E8040020D0040020433A25642C20443A96
:102A70002564206D6D2F7300566F6C746167653D22
:102A8000252E3266760000004404002000001B431F
:102A90000000B0420000D2420000C8424F70656E94
:102AA0005346342056455253494F4E3D25640A0043
:102AB0007732357136342069643D25780A0000008C
:102AC0004765745F566F6C746167653D252E32668D
:102AD0000A0000001C010020000C014010B54FF45A
:102AE000E13002F09DFE4FF4E13002F0F3FE4FF4CE
:102AF000E13002F043FF4FF4E13002F095FF10BDEA
:102B000010B55448008830B3534802F0F9FF5348D9
:102B10000078012803D1504801F0E8F916E04F4849
:102B20000078022803D14C4800F08CFF0EE04B489F
:102B30000078032803D1484800F084FF06E04748A6
:102B40000078042802D1444801F089F80020414966
:102B50000880424908704248008818B3414800780C
:102B6000012803D1404801F0C1F916E03D48007842
:102B7000022803D13C4800F065FF0EE03948007898
:102B8000032803D1384800F05DFF06E0354800789F
:102B9000042802D1344801F062F80020304908804E
:102BA000304908703148008848B3314802F0A8FF26
:102BB0002F4802F0B6FF2F480078012803D12C4897
:102BC00001F094F916E02B480078022803D1284838
:102BD00000F038FF0EE027480078032803D124488E
:102BE00000F030FF06E023480078042802D1204896
:102BF00001F035F800201D4908801E4908701E4864
:102C0000008830B31D4802F07BFF1D480078012882
:102C100003D11A4801F06AF916E019480078022831
:102C200003D1164800F00EFF0EE015480078032887
:102C300003D1124800F006FF06E01148007804288E
:102C400002D10E4801F00BF800200B4908800C4916
:102C5000087010BD6E01002080050020700100206A
:102C600072010020740100208007002076010020FE
:102C700080090020780100207A010020800B0020CC
:102C80007C01002010B503F055FB10BD2DE9F0418B
:102C900007460E4600257878397800EB0120FE497A
:102CA0000880FE4800880988884277D0FA48008862
:102CB000FB490880F8480088F84909880840F64927
:102CC00008800024A6E00120A040F34909880840BC
:102CD00000284DD10120A040F04909880840002873
:102CE00047D04FF40071EF4804F055FD732E0DD11D
:102CF000ED4951F8240004F059FD8046EA4850F8A7
:102D000024104246E74804F02DFD10E0412E0DD17D
:102D1000E64951F8240004F049FD8046E34850F8A4
:102D200024104246DF4804F01DFD00E070E0E0A101
:102D3000DC4800F04DFE05461DB10021681ED94A51
:102D40001154DCA1D74800F043FE20B1D5480B3028
:102D500001F0CCF808E0D8A1D24800F039FE18B153
:102D6000D0480B3000F06EFE4FF6FF70CB49088064
:102D70004DE04FF40071CB4804F00DFD732E0ED1E1
:102D8000C94951F8240004F011FD8046C64850F8A6
:102D900024104246C34804F0E5FC11E041E0412E16
:102DA0000DD1C24951F8240004F000FD8046BF480F
:102DB00050F824104246BB4804F0D4FC00E027E061
:102DC000BBA1B84800F004FE054605B3B549481953
:102DD000B8A100F0FDFD50B1B24804F0E7FC401E80
:102DE000B04900220A54481901F080F80FE0AD49BB
:102DF0004819B1A100F0ECFD48B1AA4804F0D6FC96
:102E0000401EA84900220A54481900F01BFE00BFCA
:102E1000601CC4B2102CFFF656AFA14800889F4931
:102E20000880BDE8F0812DE9F05F00240025002630
:102E30000027A2484078732801D0BDE8F09F9F4941
:102E4000C979C1F17F00002801DB014600E0414261
:102E50009B4A127891422FDD9849C979C1F17F01CF
:102E6000480005F075F98046214604F076FF0446D7
:102E70009249C979C1F17F01480005F069F980469E
:102E8000294604F015FF05468C49C979C1F17F0137
:102E9000480005F05DF98046314604F05EFF0646C5
:102EA0008649C979C1F17F01480005F051F9804692
:102EB000394604F0FDFE07468049097AC1F17F00DA
:102EC000002801DB014600E041427D4A1278914230
:102ED0002FDD7A49097AC1F17F01480005F038F900
:102EE0008046214604F0E4FE04467449097AC1F1A3
:102EF0007F01480005F02CF98046294604F0D8FEF1
:102F000005466E49097AC1F17F01480005F020F9B4
:102F10008046314604F0CCFE06466849097AC1F184
:102F20007F01480005F014F98046394604F0C0FEE0
:102F3000074662494979C1F17F00002801DB01465B
:102F400000E041425E4A127891422FDD5B494979A7
:102F5000C1F17F01480005F0FBF88046214604F0EE
:102F6000FCFE044655494979C1F17F01480005F04E
:102F7000EFF88046294604F09BFE05464F49497903
:102F8000C1F17F01480005F0E3F88046314604F0C6
:102F90008FFE064649494979C1F17F01480005F095
:102FA000D7F88046394604F0D8FE07464349897968
:102FB000C1F17F00002801DB014600E04142404AA8
:102FC000127891422FDD3D498979C1F17F01480096
:102FD00005F0BEF88046214604F06AFE04463749F3
:102FE0008979C1F17F01480005F0B2F88046294691
:102FF00004F05EFE054631498979C1F17F01480040
:1030000005F0A6F88046314604F052FE06462B49EC
:103010008979C1F17F01480005F09AF88046394668
:1030200004F046FE074621462648006805F068F988
:1030300011D129462448006805F062F90BD13146C8
:103040002248006805F05CF905D13946204800683F
:1030500005F056F918D01F49384604F0B3FE8046F3
:103060001C49304604F0AEFE81461A49284604F059
:10307000A9FE82461749204604F0A4FE8346434633
:103080004A46514600F05CF80E4804600E48056060
:103090000E4806600E481FE0D0000020CE00002041
:1030A000D200002098010020300000207000002095
:1030B0005E0000002400000023000000800D0020BE
:1030C000CC000020B8000020BC000020C000002080
:1030D000C400002000007A44076000BFADE610B5D0
:1030E00002F090FB13490968401A322800D210BD43
:1030F00002F088FB0F49086003F093F9FFF793FE95
:103100000D4800780D49C978884205D10A484078B1
:103110000A49097988420BD008484178C01CFFF75A
:10312000B5FD0648C0780449087004480079487025
:1031300000BFDCE7B4000020B0000020800D0020BC
:1031400010B5624C2061624C2261624C2161624C7C
:10315000236110BD10B501F0C9FD03F0D4F810BD16
:1031600070B503F0A8F8064604F0F2FF05465B4987
:1031700004F0F6FD044605F063F8544AC2E9020182
:1031800003F0A3F8064604F0E3FF0546534904F0B4
:10319000E7FD044605F054F84E4AC2E9020103F087
:1031A0009EF8064604F0D4FF05464C4904F0D8FDCD
:1031B000044605F045F8464AC2E9020103F099F8D1
:1031C000064604F0C5FF0546444904F0C9FD04461F
:1031D00005F036F8404AC2E902013C48D0E9022134
:1031E000104605F071F805463848006980F0004443
:1031F0002946204601F05CFE344988823548D0E9F2
:103200000221104605F060F804463249086921465B
:1032100001F0A5FE2F4988822D48D0E902211046F1
:1032200005F052F805462A48006980F00044294616
:10323000204601F0EBFE264988822748D0E902218A
:10324000104605F041F8044623490869214601F07B
:1032500034FF214988821D490869002105F050F892
:103260001AD11C490869002105F04AF814D11849FF
:103270000869002105F044F80ED1174908690021BA
:1032800005F03EF808D10020104988821149888253
:103290000F498882104988820C49898A494208B2BC
:1032A00001F08BFF0B49898A494208B201F0ABFF5C
:1032B0000749898A494208B201F0CBFF0649898A49
:1032C000494208B201F0EBFF70BD0000A0040020ED
:1032D000D0040020B8040020E8040020A7FA033C32
:1032E00010B503F0DFF804F0D3F818B1F9A005F039
:1032F000E3FB02E0FEA005F0DFFB0022FF21104609
:1033000004F0D6F80022FF21104604F049F910BD60
:1033100070B502F077FAFC490968401A642829D987
:1033200002F070FAF849086004F0EAF9054604F082
:103330003BFF044604F0ACF9192C06DDF34B1A46AA
:1033400019461846FFF7FCFE14E0142C08DA002C8E
:1033500006DDEF4B1A4619461846FFF7F1FE09E065
:10336000192C07DA142C05DD00231A4619461846D5
:10337000FFF7E6FE70BD70B502F044FAE549096852
:10338000401A64284DD902F03DFAE249086004F081
:10339000B7F9054604F008FF044604F079F9232C38
:1033A00005DA0F2C03DD0220DB4908600CE00F2C4E
:1033B00005DA002C03DD0120D749086004E0232C46
:1033C00002DB0320D4490860D3480068D349096868
:1033D000884226D0D0480068012804D0022809D0AD
:1033E000032815D10DE0CA4B1A4619461846FFF7B7
:1033F000A7FE11E0CA4BCB4A19461046FFF7A0FEC4
:103400000AE0C24B1A4619461846FFF799FE03E038
:10341000C5A000F0C5FA00BF00BFBF480068BF49A3
:10342000086070BD10B52021C148FDF740FCC149BE
:1034300008704FF40071BE48FDF739FCBE490870B2
:103440004FF48071BA48FDF732FCBC490870102176
:10345000B748FDF72CFCBA490870BA48006820B19B
:10346000012872D0022871D1FDE0B448007801280B
:1034700015D1B1480078012811D1AE480078012853
:103480000DD1AF480078012809D1AF480068012864
:1034900005D00023AD4A19461046FFF751FEA74854
:1034A0000078012820D1A4480078E8B9A148007824
:1034B000D0B9A3480078012816D1994B1A4619466D
:1034C0001846FFF73DFE00209F490860A0490860AC
:1034D000A0480078012803D09E480078042802D133
:1034E00002209C4908709FE094480078012812D17E
:1034F0009148007878B98F48007860B99048007892
:1035000048B9924B944A19461046FFF719FE01201C
:103510008C49086088E089480078E0BB86480078DC
:10352000C8BB84480078B0BB85480078012833D1F7
:103530008848007858B97A4B1A4619461846FFF75A
:10354000FFFD0120834908706EE06EE0A8E081482D
:103550000078032809D1724B1A4619461846FFF71E
:10356000EFFD04207B4908705EE07A48007800286F
:103570005AD078480078012856D076480078042838
:1035800052D0754B714A19461046FFF7D9FD0220FB
:103590006C49086048E0FFE76948007870B96C48FA
:1035A000006801280AD04FF07E53584A1946104649
:1035B000FFF7C6FD01206449086035E05F480078E8
:1035C00038B9524B4FF07E5219461046FFF7B8FDFE
:1035D0002AE05A480078012811D15748007801287C
:1035E0000DD15448007850B955480078012806D1CB
:1035F000564B4B4A19461046FFF7A2FD14E04F48C0
:103600000078012810D14C48007868B94948007802
:10361000012809D14A480078012805D1404B4B4A7E
:1036200019461046FFF78CFD3AE04C4B4C4A1946C0
:103630001046FFF785FD41480078012812D13E4829
:10364000007878B93B48007860B93D480078012897
:1036500008D100203B49086001203D490860C8208E
:1036600000F077F91CE03E4B3C4A19461046FFF744
:1036700067FD32480078012812D12F48007878B9C8
:103680002C48007860B92E480078012808D1C8205D
:1036900000F05FF900202B49086003202D490870D5
:1036A00000BF10BD2DE9F04120212148FDF7FFFAB0
:1036B00004464FF400711E48FDF7F9FA05464FF431
:1036C00080711B48FDF7F3FA074610211848FDF7F3
:1036D000EEFA47E00A756C747261736F6E69635F2E
:1036E000496E697420737563636565640A00000040
:1036F0000A756C747261736F6E69635F496E697489
:10370000206661696C0A0000FC000020CDCCCC3D35
:10371000CDCCCCBDF0000020F4000020F80000204B
:10372000CDCC4C3ECDCC4CBE6572726F720A00009F
:10373000000C0140D5000020D6000020D800002059
:10374000D7000020DC000020E4000020CDCCCC3EDF
:10375000E800002002010020CDCC4C3DE17A143F6E
:103760000AD7A33D06466448007801280CD1634B74
:103770001A4619461846FFF7E3FC012F01D0012E27
:1037800002D100205C4908705D48007830B1012802
:1037900053D002285AD0032871D161E05CB955B9E1
:1037A000012F08D1012E06D1564B1A46194618464C
:1037B000FFF7C6FC40E00CB9012D04D0012D09D162
:1037C00046B9012F06D14F4B002219461046FFF78C
:1037D000B7FC31E0012C00D125B1012C09D1012E1B
:1037E00007D137B90023474A19461046FFF7A8FC0E
:1037F00022E00CBB05BBFFB9F6B93F480078D8B949
:1038000000231A4619461846FFF79AFC3E480078EE
:1038100018B901203A4908700EE03B4800780128A9
:1038200003D102203649087006E0374800780228A4
:1038300002D103203249087021E00020304908708D
:103840000120314908702C49087018E000202C49EB
:10385000087002202C4908700120274908700EE0EA
:103860000020274908702849087023490870274814
:103870000078012802D1FF202449087000BF00BF52
:10388000BDE8F08110B52248007800B910BD1F488E
:10389000007808B31D480078012808D11D48007839
:1038A00010B9FFF7FFFE17E0FFF7BCFD14E0174863
:1038B0000078022802D1FFF75EFD0DE01348007882
:1038C000032802D1FFF724FD06E0104800780A28FB
:1038D00002D1FF200D4908700F4800780B49097884
:1038E000884206D0094800780B4908700120084931
:1038F000087000BFCAE70000ED000020CDCC4C3EB0
:10390000EE000020CDCCCC3DEF00002001010020D6
:1039100000010020D4000020EC00002000BF011EA8
:10392000A0F1010290B2FAD170470CB500210191CB
:103930000BE00B21009102E00099491E00910099D3
:103940000029F9D10199491C019101998142F0D3D3
:103950000CBD18B504460020009006E04FF47A70C4
:10396000FFF7E3FF0098401C00900098A042F5D3B9
:1039700018BD0000F9A005F09FF8012080F313881E
:1039800000BF00BFF948006800F4E060F849084350
:10399000001DF6490860BFF34F8F00BF00BFFEE770
:1039A00010B50446204602F0CDF8204602F097F804
:1039B00010BD10B50446204602F0C4F8204602F0BF
:1039C0008EF8204602F09CF8204602F0AAF810BDBE
:1039D00070B504460B4621461A4619E0087815785A
:1039E000A84214D10AE011F8015B12F8016BB5424C
:1039F00004D0D01A081A411C1A4602E01078002898
:103A0000F1D100BF107818B9081B80B270BD491CF5
:103A100008780028E2D100BFF8E704E003788B4281
:103A200000D10270401C0378002BF7D1704710B50D
:103A300040F2FF7002F020FFAC22CE49CE4802F0E7
:103A40003EFF10BD2DE9FE4F04460026B24600257C
:103A50000027A846A946002002902046FFF7A0FFB5
:103A6000204603F0A3FE8046B8F10C0F4FDB207810
:103A700023284CD12079502849D16079532846D148
:103A8000A079432843D1E0794B2840D1207B2128DD
:103A90003DD16078303864214843A178303901EB5A
:103AA000810100EB4101E0783038084486B2607A49
:103AB000303864214843A17A303901EB810100EBB1
:103AC0004101E07A303801EB0009B9F1C80F45DC5B
:103AD000082E43DA207A2B2808D1F0B2494601F0AB
:103AE00041FEA548883040F826900DE0207A2D2828
:103AF0000AD1F0B2C9F1000101F034FEC9F10001B0
:103B00009D48883040F82610FFF791FF26E0B8F175
:103B1000080F23DB2078232820D1207950281DD1BD
:103B2000607944281AD1A079532817D1E079542814
:103B300014D1207A212811D160783038642148438B
:103B4000A178303901EB810100EB4101E078303898
:103B50000E18F0B201F0D2FDBDE8FE8F78E0605D96
:103B600023281CD10026681C85B2002714E0A84534
:103B70000FDB605D39280CDC605D302809DB605D9F
:103B800006EB860100EB4100303886B2681C85B236
:103B900000E05BE0781C87B2032F59DAE7E7605D4D
:103BA000502827D100200290681C85B200271EE013
:103BB000A84519DB605D392816DC605D302813DB11
:103BC000605D04F0CEFA6D490190029804F0C8F8E7
:103BD0000090019904F06CF88346694904F0BAF842
:103BE0000290681C85B200E030E0781C87B2042F98
:103BF0002EDADDE7605D542827D14FF0000A681CFB
:103C000085B2002715E0A84510DB605D39280DDC82
:103C1000605D30280ADB605D0AEB8A0100EB410041
:103C200030381FFA80FA681C85B200E00EE0781C7C
:103C300087B2042FE7DB029804F0B6FA8346F0B2AD
:103C40005246594601F0CAFC02E000BF681C85B22A
:103C5000A84502DB605D002881D100BF7CE770B51C
:103C600004464FF0FF35607824280CD1A078212835
:103C700009D10021404880F88410FFF7D8FE41A008
:103C800001F02DFF70BD607824281FD181213A48B2
:103C9000001D03F080FD611C3748001D03F08DFD01
:103CA000204603F083FD801E3349091D00220A547B
:103CB0002521314880F88410FFF7B9FE36A0FFF7C0
:103CC00078FE2D48001DFFF774FEDBE7A078303842
:103CD0004FF47A714843E178303901EBC10202EBCD
:103CE000011100EB81012079303800EB800001EBFD
:103CF0004001607930380D18002D02DBA0792328AF
:103D000003D02AA0FFF755FEBCE76802C11700EBFD
:103D100011510913A0EB013131B96E02F11706EB15
:103D20001151081302F0A8FD7B223C212046FFF729
:103D300074FE7D223E212046FFF76FFE204603F0F1
:103D400035FD401C86B269023246204602F071FD04
:103D500017A0FFF72EFE00BF94E7000073746D33C9
:103D6000322072657365740D0A0000000CED00E0EE
:103D70000000FA0500F07F009803002000002041B9
:103D80000000404240434C454152205052455F4361
:103D90004D44204F4B210000405345542050524584
:103DA0005F434D44204F4B210000000045000000C0
:103DB000410000002DE9F04F87B080460E46914645
:103DC0001D460027BA460021304604F099FA03D276
:103DD000002007B0BDE8F08F4FF0000A002412E089
:103DE000204604F0B5F98346F9485B464A46314619
:103DF0000090404600F05DFC20B9BC4200DA274646
:103E00004FF0010A641E14F1870FE9DABAF1000FCE
:103E100023D0384604F09CF98346ED485B464A4679
:103E200031460090404600F044FCE948C06CE84947
:103E3000896CCDE90215CDE90405E548406CCDE972
:103E40000005E3482B46E3A1026CF24804F044FE6F
:103E5000F048FFF7F7FD0120BBE70020B9E770B598
:103E6000024600210020002323E0545C542C1ED184
:103E70004C1C145D303C4FF47A756C438D1C555DC1
:103E8000303D05EBC50606EB051504EB8505CC1C9E
:103E9000145D303C04EB840405EB44050C1D145DFB
:103EA000303C2B19834200DD1846091D01E0491CF6
:103EB00000BF545C002CD8D170BD10B504460A2058
:103EC000FFF747FD4FF40071D24803F064FC610234
:103ED0004FF40072CF4802F022FCCE48FFF7BFFF3C
:103EE000CD490860CB48FFF7ADFD10BD2DE9F0438B
:103EF0008DB08146002400200C900B900A90099010
:103F000008900790484601F0EAFDC4A14846FFF733
:103F10005FFD04461CB1C3A001F0E1FDBAE2C4A1FB
:103F20004846FFF755FD044694B10120C249087088
:103F3000FF2001F0E3FBC1A0FFF73BFD00231A4681
:103F400019461846FFF7FCF8FF20BF490870A1E2A8
:103F5000BEA14846FFF73CFD0446C4B10CAABDA172
:103F6000484603F033FC0028D8D00C99C8B201F0C1
:103F7000C5FBBBA1A7480C9A04F0AEFDA548FFF70E
:103F800018FD4FF40071A34803F005FC82E2B8A1CC
:103F90004846FFF71DFD04460CB1FFF7EBFCB6A148
:103FA0004846FFF715FD04466CB10BAAB4A148467C
:103FB00003F00CFC0028B1D001209F4908700B9839
:103FC000FFF77BFF66E2B1A14846FFF701FD04461B
:103FD0001CB3B048B04BB14AB1A10090484603F0C1
:103FE000F5FB00289AD0012093490870AB4800687F
:103FF000A949096888420BD0A8480068AC49086004
:10400000A4480068AB49086000208B49087041E271
:10401000A2480068FFF751FF3CE2A7A14846FFF71E
:10402000D7FC04469CB1A6A0FFF7C3FC00231A46A8
:1040300019461846FFF784F84FF4FA6240F2DC5153
:10404000FF2001F0CBFAFF207F49087022E2A0A1F7
:104050004846FFF7BDFC0446CCB19FA001F050FDDF
:104060000020059004900390029002A803A904ABDD
:1040700005AACDE900109AA1484603F0A7FB28B194
:10408000DDE90232DDE90410FFF75AF802E299A1F6
:104090004846FFF79DFC044634B101206A49087088
:1040A000002096490870F5E195A14846FFF790FC7D
:1040B00004464CB1022064490870934B1A461946D5
:1040C0001846FFF73DF8E5E190A14846FFF780FC70
:1040D00004461CB103205C490870DBE18DA1484611
:1040E000FFF776FC044634B1874B1A46194618464A
:1040F000FFF726F8CEE189A14846FFF769FC0446A0
:1041000034B1884B1A4619461846FFF719F8C1E131
:1041100085A14846FFF75CFC044634B17A4B814ADE
:1041200019461046FFF70CF8B4E181A14846FFF7A5
:104130004FFC044634B17B4B734A19461046FEF7D8
:10414000FFFFA7E17CA14846FFF742FC044634B1DB
:10415000744B6D4A11461846FEF7F2FF9AE178A1BA
:104160004846FFF735FC044634B1674B6D4A1146AB
:104170001846FEF7E5FF8DE173A14846FFF728FCDE
:1041800004464CB100231A4619461846FEF7D8FFDC
:10419000FF202D4908707DE16DA14846FFF718FC0E
:1041A00004461CB16CA001F09AFC73E16BA1484677
:1041B000FFF70EFC04464CB10A20FFF7CAFB1FA014
:1041C000FFF740FC0A20FFF7C4FBCFE0DBE0000074
:1041D000440400207B233030305025303464542593
:1041E000303464212330303150253034645425304C
:1041F0003464212330303250253034645425303437
:1042000064212330303350253034645425303464F5
:10421000217D000098010020040100202444525315
:104220002100000068656C6C6F20776F726421005C
:10423000244453542100000000010020233235356E
:1042400050445354210000000101002024445354E1
:104250003A000000244453543A2564210000000031
:10426000232530336450445354210D0A00000000CC
:104270002452535421000000244447533A000000C4
:10428000244447533A256421000000002444475445
:104290003A00000018010020140100201001002045
:1042A000244447543A25642D25642C2564210000BC
:1042B000080100200C01002024444A522100000083
:1042C00023323535503135303054323030302100E2
:1042D000244361723A000000636D644F6B0000007C
:1042E000244361723A25662C25662C25662C2566AA
:1042F00021000000245A4E584A21000002010020EB
:10430000245A59425A2100009A99993E24444A4716
:104310005321000024514A21000000002448542168
:10432000000000009A9999BE245A5A21000000000A
:1043300024595A2100000000245A5059210000003D
:10434000245950592100000024545A210000000033
:1043500024474554412100004141410024534D412F
:1043600052545F53544F50210000000084A001F0CC
:10437000B6FB0A20FFF7EDFA89A001F0B0FB0A2096
:10438000FFF7E7FA86E088A14846FFF721FB0446DD
:10439000BCB10AA807A908AB09AACDE9001084A1FD
:1043A000484603F013FA002874D0DDE90903DDE97B
:1043B0000721FFF7FFFC00286CD182A001F08FFBE2
:1043C00068E086A14846FFF703FB0446002C61D154
:1043D00086A14846FFF7FCFA0446002C51D006AAF5
:1043E00083A1484603F0F2F9002853D00120824906
:1043F000086002F0E5FC81490698086008460068FC
:104400000B2825D2DFE800F02406090C0F1215183E
:104410001B1E21007A4D062620E07A4D05261DE060
:10442000794D07261AE0794D072617E0784D0726C3
:1044300014E0784D062611E0774D05260EE0774D05
:1044400005260BE0764D042608E0764D062605E0AD
:104450000020694908600025002600BF00BF7DB12B
:1044600000274FF0080809E0FAB208F0FF002B46D9
:10447000032102F038FE7F1C08F11008B742F3DB7D
:1044800008E069A14846FFF7A3FA044614B10020EA
:10449000594908600DB0BDE8F08310B56548007853
:1044A00000285BD101F0AEF90021634AD2E9003265
:1044B000C31A61EB0200614909680022C91A8241EE
:1044C0004CDA01F09FF900215B4A03C25C480068A6
:1044D00048B15C48006830B90120564908705AA0BC
:1044E00001F0FDFA10BD5B480068FFF7E6FC5A4892
:1044F00000685A490968884218DA564800685749DE
:10450000096888420CD154480068524908604C48F8
:10451000006820B14B480068401E4A490860E1E746
:104520004C480068401C4B49086017E04948006847
:104530004A49096888420CD14748006845490860E3
:104540003F48006820B13F480068401E3D49086070
:10455000C8E740480068401E3E49086000BFC1E708
:10456000F8B504460D4616462B4622463CA1414866
:10457000009604F0B1FA3F48FFF764FAF8BD000076
:104580002330303650313530305430303030212304
:104590003030375031353030543030303021000039
:1045A000404F4B2100000000244B4D533A000000C7
:1045B000244B4D533A25662C25662C25662C256404
:1045C0002100000043616E27742066696E642062DA
:1045D00065737420706F7321212100002443617280
:1045E0004C696E6557616C6B21000000244D5600CC
:1045F000244D5625642100001C01002020010020CC
:1046000004A3000824A1000884A4000864A50008ED
:1046100044A6000824A7000864A20008C4A100085A
:10462000E4A70008C4A300082452756E53746F7089
:1046300021000000000100202801002004010020CA
:10464000180100200C0100204047726F7570446F04
:104650006E652100080100201001002014010020D7
:10466000232530336450253034645425303464219C
:1046700000000000980100202DE9F04180460D4621
:1046800016461F46069CFE49404603F069FB206023
:10469000FB49284603F064FB6060F949304603F0AB
:1046A0005FFBA060F649384603F05AFBE060BDE8C6
:1046B000F0810FB59DB0F2491D9803F051FB1D909C
:1046C000EF491E9803F04CFB1E90ED491F9803F034
:1046D00047FB1F9022980068179022984068169018
:1046E0002298806815902298C068149000211D9827
:1046F00003F006FE02D1002018901BE0DDE91D0149
:1047000003F060FB079003F09BFDCDE9080105F085
:10471000E5FA0022DB4BCDE90A0103F038FCDA4A66
:10472000DA4BCDE90C0103F0A4FCCDE90E0103F056
:10473000CBFD18901E99084603F012FB0A901D99B4
:10474000084603F00DFB09900A9903F0B1FA0B90AB
:1047500003F076FDCDE90C0105F06EFCCDE90E010C
:1047600003F0B2FD1E90209803F06AFDC64AC74BC5
:10477000CDE9000103F00BFC0022C54BCDE902019D
:1047800003F077FCCDE9040105F0B8FBCDE90801A1
:10479000149803F055FDCDE90601DDE9082303F087
:1047A000F6FBCDE90C011E9803F04AFDCDE90A01A4
:1047B000DDE90C2303F0E5FBCDE90E0103F084FDF8
:1047C0001E90209803F03CFDAF4AB04BCDE90001AC
:1047D00003F0DDFB0022AE4BCDE9020103F049FC02
:1047E000CDE9040105F0D8FBCDE90801149803F0E8
:1047F00027FDCDE90601DDE9082303F0C8FBCDE97B
:104800000C0117991F9803F0A5FA099003F018FD01
:10481000CDE90A01DDE90C2303F0B3FBCDE90E017C
:1048200003F052FD1F90179880F000400F901F99E1
:1048300003F070FD02D2012021B000BDDDE91510AA
:1048400003F036FA0B9003F0FBFCCDE90E011F9943
:10485000084603F085FA08901E99084603F080FA8E
:104860000790089903F024FA099003F0E9FCCDE9D8
:104870000A0105F0E1FBCDE90C01DDE90E2303F0AF
:104880000BFD01D20220D7E71F99084603F068FA12
:1048900004901E99084603F063FA0390049903F00C
:1048A00007FA059003F0CCFCCDE9060105F0C4FB46
:1048B000CDE90A011E9803F0C3FCCDE90801DDE94A
:1048C0000A2303F0D6FBCDE90C0105F0C9F8CDE9C8
:1048D0000E0103F0F9FC11901F99084603F040FA0D
:1048E00002901E99084603F03BFA0190029903F0EA
:1048F000DFF9039003F0A4FCCDE9040105F09CFB73
:10490000CDE908014FF08040169903F029FA05908F
:1049100003F096FCCDE90601DDE9082303F037FB3F
:10492000CDE90C011599084603F01AFA089016997A
:10493000084603F015FA06901F99084603F010FA8E
:1049400004901E99084603F00BFA0390049903F0B3
:10495000AFF90590069903F0ABF90790089903F0B9
:10496000F9F9099003F06CFCCDE90A01DDE90C23AB
:1049700003F07FFBCDE90E0103F0A6FC12904FF08F
:104980007E51129803F0C6FC04D34249129803F0FA
:10499000B7FC01D205204FE700211F9803F0B0FCBF
:1049A00002D23C48109002E04FF07E5010901298D6
:1049B00003F046FCCDE9080105F052F8CDE90C0101
:1049C000DDE9101003F0CCF9099003F039FCCDE9D2
:1049D0000A01DDE90C2303F033FACDE90E0103F0FF
:1049E00073FC1990199803F02BFC0022284BCDE999
:1049F0000A0103F0CCFA244A244BCDE90C0103F060
:104A000038FBCDE90E0103F05FFC1990199803F013
:104A100017FC00221E4BCDE90E0103F03DFC09D32B
:104A2000199803F00DFC00221346CDE90E0103F0A6
:104A30001BFC01D20620FFE64FF08040169903F0E0
:104A40008FF90D90159903F08BF90F901599084681
:104A500003F086F90D901699084603F081F90B9042
:104A60001F99084603F07CF909901E99084603F047
:104A700077F90890099903F01BF90A900B990BE05C
:104A80000000204100E070404AD8124DFB2109404F
:104A900000806640000080BF03F05CF90C900D9927
:104AA00003F058F980F000400E900F9903F08AF956
:104AB00013904FF07E51139803F02CFC04D37549EA
:104AC000139803F01DFC01D20320B5E6139803F000
:104AD000B7FBCDE90C0104F0C3FFCDE90E0103F0F3
:104AE000F3FB1A901A9803F0ABFB00226A4BCDE956
:104AF000080103F04CFA694A694BCDE90A0103F059
:104B0000B8FA0022644BCDE90C0103F03DFACDE97F
:104B10000E0103F0D9FB1A901A9803F091FB0022C2
:104B2000604BCDE90E0103F0B7FB09D31A9803F0EF
:104B300087FB00225C4BCDE90E0103F095FB01D20F
:104B4000042079E61999209803F004F90F901A9936
:104B500003F0AEF81B901B9803F072FB0022534B3E
:104B6000CDE90E0103F098FB09D31B9803F068FB15
:104B700000224F4BCDE90E0103F076FB01D2072056
:104B80005AE62299189808614A49199803F0E2F800
:104B90000146229841611A99229881611B992298B5
:104BA000C16122980069079003F04AFB0022424B42
:104BB000CDE9080103F0EBF90022404BCDE90A01F1
:104BC00003F057FA00223E4BCDE90C0103F0DCF96B
:104BD000CDE90E0103F015FB229908642298406983
:104BE000079003F02DFB0022334BCDE9080103F0C1
:104BF000CEF90022314BCDE90A0103F03AFA002246
:104C00002F4BCDE90C0103F01BF9CDE90E0103F0A8
:104C1000F8FA01462298416422988069079003F0CF
:104C20000FFB0022244BCDE9080103F0B0F900226C
:104C3000224BCDE90A0103F01CFA0022204BCDE9FA
:104C40000C0103F0FDF8CDE90E0103F0DAFA01469C
:104C5000229881642298C069079003F0F1FA00223B
:104C6000154BCDE9080103F092F90022134BCDE971
:104C70000A0103F0FEF90022114BCDE90C0103F00B
:104C8000DFF8CDE90E0103F0BCFA01462298C164B9
:104C90000020D1E5000080BF008066404AD8124D58
:104CA000FB21094000E0604000E060C00080564009
:104CB000008056C00000B44200409F4000E07040B9
:104CC0000070974008B501211020FCF719FA102058
:104CD000ADF800008DF8030003208DF8020069464E
:104CE0000148FBF751FF08BD0010014000B58DB031
:104CF00001214803FCF704FA0121C802FCF700FA7D
:104D000001210846FCF7FCF901210420FCF7F8F921
:104D100001210820FCF7F4F901211020FCF7F0F93B
:104D20004FF47070ADF8300018208DF83300032078
:104D30008DF832000CA9FE48FBF726FF05A8FCF70A
:104D4000D2FF6020ADF814000120ADF8160000205D
:104D5000ADF81C00ADF81A0005A9F648FCF7CBFC2D
:104D600005A9F448FCF709FD05A9F248FCF752FD36
:104D700005A9F048FCF799FD0020ADF82A00ADF830
:104D800026004FF4FA60ADF828000120ADF82400A9
:104D900009A9E848FCF772FC0121E648FCF7CAFFC4
:104DA0000121E448FCF7D2FF0121E348FBF7BDFFF6
:104DB0000320ADF8300018208DF8330003208DF863
:104DC00032000CA9DD48FBF7DFFE4FF41060ADF8B0
:104DD000300018208DF8330003208DF832000CA924
:104DE000D748FBF7D1FE05A8FCF77DFF6020ADF8A2
:104DF00014000120ADF816000020ADF81800ADF841
:104E00001C00ADF81E00ADF81A0005A9CD48FCF74E
:104E100072FC05A9CB48FCF748FD05A8FCF763FF29
:104E20006020ADF814000020ADF816000420ADF8A5
:104E300018000020ADF81C00ADF81E00ADF81A00F7
:104E400005A9C048FCF799FC05A9BE48FCF7E2FC9F
:104E50000020ADF80400ADF80600ADF80800ADF88C
:104E60000A00ADF80C004FF40050ADF80E00400001
:104E7000ADF8100001A9B348FCF71CFF0020ADF805
:104E80002A00ADF826004FF4FA60ADF828000120A2
:104E9000ADF8240009A9AB48FCF7F0FB0121A948B3
:104EA000FCF748FF0121A748FCF750FF0DB000BDFB
:104EB0002DE9F84F04460D462946204602F04AFFE8
:104EC000A1490860A14801689F48006802F042FFBC
:104ED00082469F48B0F9000003F03AF983465146F4
:104EE00002F03EFF80469B48B0F9000003F030F925
:104EF000824695480168504602F032FF814641469D
:104F000002F0D6FE07469448B0F9000003F020F9FD
:104F10003946009002F0CCFE064603F045F900B297
:104F20008D49088088480068884908608A48B0F937
:104F30000000B0F5FA6F03DD4FF4FA60864908808F
:104F40008548B0F9000010F5FA6F03DA4FF630002B
:104F5000814908808048B0F90000BDE8F88F2DE94C
:104F6000F84F04460D462946204602F0F3FE7B49E1
:104F700008607B4801687948006802F0EBFE8246D1
:104F80007348B0F9000003F0E3F88346514602F09D
:104F9000E7FE80466F48B0F9000003F0D9F882467A
:104FA0006E480168504602F0DBFE8146414602F041
:104FB0007FFE07466B48B0F9000003F0C9F8394698
:104FC000009002F075FE064603F0EEF800B2654967
:104FD000088062480068624908606248B0F90000D1
:104FE000B0F5FA6F03DD4FF4FA605E4908805D4862
:104FF000B0F9000010F5FA6F03DA4FF630005949A6
:1050000008805848B0F90000BDE8F88F2DE9F84F46
:1050100004460D462946204602F09CFE524908608F
:10502000524801685048006802F094FE82464848A1
:10503000B0F9000003F08CF88346514602F090FE70
:1050400080464448B0F9000003F082F882464648A2
:105050000168504602F084FE8146414602F028FE77
:1050600007464348B0F9000003F072F83946009053
:1050700002F01EFE064603F097F800B23C49088095
:1050800039480068394908603948B0F90000B0F57E
:10509000FA6F03DD4FF4FA60354908803448B0F9FF
:1050A000000010F5FA6F03DA4FF63000304908803F
:1050B0002F48B0F90000BDE8F88F2DE9F84F0446FD
:1050C0000D462946204602F045FE2A4908602A4836
:1050D00001682848006802F03DFE82461C48B0F98D
:1050E000000003F035F88346514602F039FE804651
:1050F0001848B0F9000003F02BF882461D480168FB
:10510000504602F02DFE8146414602F0D1FD074691
:105110001A48B0F9000003F01BF83946009002F07D
:10512000C7FD064603F040F800B21449088027E0A6
:10513000001001400034014040001600000C014006
:1051400000080140002C0140380100203C010020F3
:1051500032010020300100203401002044010020F1
:10516000480100204001002050010020540100208F
:105170004C0100205C01002060010020580100204B
:105180005A4800685A4908605A48B0F90000B0F51A
:10519000FA6F03DD4FF4FA60564908805548B0F9BC
:1051A000000010F5FA6F03DA4FF63000514908801D
:1051B0005048B0F90000BDE8F88F70B505462C46A0
:1051C000B4F5FA6F01DD4FF4FA6414F5FA6F00DA02
:1051D000494C002C0BDD4FF4FA614848FDF744F8C8
:1051E000C4F5FA6081B24548FDF73CF80AE004F5E1
:1051F000FA6081B24148FDF737F84FF4FA613F4851
:10520000FDF730F870BD70B505462C46B4F5FA6F61
:1052100001DD4FF4FA6414F5FA6F00DA364C002C15
:105220000BDD4FF4FA613548FDF722F8C4F5FA605A
:1052300081B23248FDF71AF80AE004F5FA6081B24B
:105240002E48FDF715F84FF4FA612C48FDF70EF8DB
:1052500070BD70B505462C46B4F5FA6F01DD4FF40C
:10526000FA6414F5FA6F00DA234C002C0BDD4FF4CE
:10527000FA612348FCF7FAFFC4F5FA6081B22048CE
:10528000FCF7F2FF0AE004F5FA6081B21C48FCF773
:10529000EDFF4FF4FA611A48FCF7E6FF70BD70B5F8
:1052A00005462C46B4F5FA6F01DD4FF4FA6414F5A7
:1052B000FA6F00DA104C002C0BDD4FF4FA61104845
:1052C000FCF7D6FFC4F5FA6081B20D48FCF7CAFFBF
:1052D0000AE004F5FA6081B20948FCF7C9FF4FF40F
:1052E000FA610748FCF7BEFF70BD00005C010020BA
:1052F000600100205801002030F8FFFF0034014019
:10530000002C014038B501211020FBF7F9FE4FF4C5
:105310000050ADF8000003208DF8020010208DF839
:1053200003006946F748FBF72FFC4FF48040ADF8C7
:1053300000006946F348FBF727FC4FF40040ADF846
:1053400000006946EF48FBF71FFC0120ADF80000A4
:105350006946EC48FBF718FC0220ADF800006946EE
:10536000E848FBF711FC0420ADF800006946E54869
:10537000FBF70AFC00241BE040F2DC50E24901EBA1
:1053800004110880E04901EB041188800020DE4907
:1053900001EB0411886041F28830DB4901EB041114
:1053A00048800020D84901EB0411C860601CC4B2D9
:1053B000082CE1DB38BD1FB501212020FBF7ADFE35
:1053C0004720ADF804000920ADF8080001A9CF4836
:1053D000FCF754F90121CD48FCF772FF0122114678
:1053E000CA48FCF7C2FC37208DF8000001208DF878
:1053F00001008DF802008DF803006846FAF7A9FF56
:105400000121C248FCF796FC1FBD2DE9F05F044660
:10541000BD4901EB04118868002102F071FF5AD0E8
:10542000B94800EB04100088B74901EB0411C968C2
:1054300000EB010940F6BA10814501DD814604E028
:10544000B9F5FA7F01DA4FF4FA79AF4A02EB0412A8
:105450009168AD4A02EB0412906802F029FC834681
:1054600002F0EEFE21F000480746A74800EB0410CA
:105470008088A9EB000ABAF1000F01DB514601E078
:10548000CAF10001084602F071FE05463A4643465D
:1054900002F0EAFE0AD89C4901EB0411A1F804903D
:1054A0000020994901EB0411886014E0964901EB52
:1054B0000411888802F055FE0646934800EB04105C
:1054C0008168304602F0F4FB054602F086FE8E4904
:1054D00001EB04118880BDE8F09F70B504460D46CD
:1054E000062C2BD2DFE804F0030A11181E242A46EA
:1054F0004FF400518348FBF7F8FB20E02A464FF4B5
:1055000080418048FBF7F1FB19E02A464FF4004147
:105510007C48FBF7EAFB12E02A4601217948FBF7B9
:10552000E4FB0CE02A4602217648FBF7DEFB06E0AE
:105530002A4604217348FBF7D8FB00E000BF00BFF8
:1055400070BD10B501217148FCF7BDFE00283ED0AA
:105550006F480078082802D100206D4908706D4816
:10556000007890B968486A49097800EB0110808892
:1055700066492C310880012165480078FFF7ADFFAE
:1055800063480078FFF741FF15E05F4860490978FC
:1055900000EB0110808840F6C4110C1A5B492C31D5
:1055A0000C8000215A480078FFF797FF5848007890
:1055B000401C574908705748007808B9012000E09E
:1055C00000205449087001215048FCF78DFE10BDA1
:1055D00010B5FFF797FEFFF7EEFE10BD2DE9FF5F58
:1055E00004460E46914640F6C410864202DCB6F5EB
:1055F000FA7F01DABDE8FF9FFF2C35D1002530E0AE
:10560000414901EB05110E803F4901EB0511488826
:1056100002F0BDFD074600223F4B02F02AFD824604
:105620008B46394901EB05110988374A02EB05120F
:105630009288881A02F09AFD52465B46CDE9000135
:1056400002F017FDCDE9020102F03EFE2E4901EB0A
:10565000051188602C4901EB0511A1F80290681C26
:10566000C5B2082DCCDBC5E7082C00DBC2E742F24F
:105670001070814500DD8146B9F1140F0DDA224921
:1056800001EB04110E80204901EB04118E800020F3
:105690001D4901EB041188602EE01B4901EB041148
:1056A0000E80194901EB0411A1F80290164901EB93
:1056B0000411488802F06BFD07460022164B02F0E9
:1056C000D8FC82468B46104901EB041109880E4A2A
:1056D00002EB04129288881A02F048FD52465B469B
:1056E000CDE9000102F0C5FCCDE9020102F0ECFDBC
:1056F000054901EB0411886000BF7BE7FF281FD13B
:1057000000211AE0001001400005002000140040B4
:10571000650100206401002000003440184A02EBBB
:1057200000129288164B03EB01131A80154A144B92
:1057300003EB01139A604A1CD1B20829EEDB7047D3
:10574000082800DBFBE70E4A02EB001292880C4BA4
:1057500003EB00131A800B4A094B03EB00139A600A
:1057600000BFECE7082800DB7047054A02EB001297
:10577000D160044A024B03EB00139A6000BFF3E7C9
:10578000000500206F12833A30B5204800684FF4BE
:105790007A72B0FBF2F1B1F1807F00D31DE021F00D
:1057A0007F40401E4FF0E022506150170F2200282A
:1057B00007DA13071D0E164B00F00F04241F1D55AA
:1057C00003E013071C0E134B1C5400BF00204FF0C6
:1057D000E02290610720106100BF30BD10B50E4877
:1057E0000068401C0C4908600C480078401C0B49BC
:1057F000087008460078142803DB00200870FDF7C5
:10580000AFFC10BD04480068704700000000002095
:1058100018ED00E000E400E0680100206C010020C9
:1058200010B586B00446012144F20400FBF768FC81
:10583000FB48FCF75DFD4FF40070ADF80400182044
:105840008DF8070003208DF8060001A9F548FBF745
:105850009BF94FF48060ADF8040004208DF8070038
:1058600003208DF8060001A9EE48FBF78DF902949C
:105870000020ADF80C00ADF80E00ADF810000C20C3
:10588000ADF812000020ADF8140002A9E448FCF7BE
:1058900072FD25208DF8000001208DF80100002008
:1058A0008DF8020001208DF803006846FAF751FDDB
:1058B000012240F22551DA48FCF7F5FD002240F2C2
:1058C0002771D748FCF7EFFD0121D548FCF7DFFD34
:1058D00006B010BD10B586B0044601210820FBF7C4
:1058E0000FFC01214804FBF718FC0420ADF814005C
:1058F00018208DF8170003208DF8160005A9C94857
:10590000FBF742F90820ADF8140048208DF8170085
:1059100005A9C448FBF738F901940020ADF8080048
:10592000ADF80A00ADF80C00ADF810000C20ADF891
:105930000E0001A9BC48FCF71EFD26208DF80000D2
:1059400001208DF8010000208DF8020001208DF863
:1059500003006846FAF7FDFC012240F22551B248E7
:10596000FCF7A1FD002240F22771AF48FCF79BFD38
:105970000121AD48FCF78BFD06B010BD10B586B017
:10598000044601210820FBF7BBFB01218804FBF73B
:10599000C4FB4FF48060ADF814001C208DF8170094
:1059A00003208DF8160005A9A048FBF7EDF84FF489
:1059B0000060ADF8140048208DF8170005A99B4839
:1059C000FBF7E2F801940020ADF80800ADF80A00FA
:1059D000ADF80C00ADF810000C20ADF80E0001A9D8
:1059E0009348FCF7C8FC27208DF8000001208DF8B3
:1059F000010000208DF8020001208DF803006846A8
:105A0000FAF7A7FC012240F225518948FCF74BFD2B
:105A1000002240F227718648FCF745FD01218448A9
:105A2000FCF735FD06B010BD10B586B00446012167
:105A30001020FBF765FB01210805FBF76EFB4FF417
:105A40008050ADF814001C208DF8170003208DF84D
:105A5000160005A97748FBF797F801940020ADF8E8
:105A60000800ADF80A00ADF80C00ADF810000C20ED
:105A7000ADF80E0001A97048FCF77DFC01216E48CD
:105A8000FCF7A8FD35208DF8000001208DF80100FD
:105A900000208DF8020001208DF803006846FAF717
:105AA00058FC012240F225516348FCF7FCFC00221F
:105AB00040F227716048FCF7F6FC01215E48FCF7D4
:105AC000E6FC06B010BD00BF554A128802F0400245
:105AD000002AF9D0C2B2524B1B1D1A8070470BE04E
